:020000040000FA
:100000000730831203139F0083160313003086000A
:100010008312031386010614A0012008182086000D
:100020003C20A00A0A302002031D0D28A0010D2843
:1000300082073F3406345B344F3466346D347D348C
:1000400007347F346F3477347C3458345E347934F9
:1000500071348034A500A50AA50B2F283128322041
:100060002C2808003230A40005300000A300A30BA8
:100070003728A40B34280800FA302A20FA302A2026
:02008000080076
:02400E004A3F27
:00000001FF
