:020000040000FA
:020000000528D1
:08000800082837200108062832
:10001000A100A10E83160313010EA2008312031385
:10002000030EA0008B1817280B191E282C288B10E4
:10003000861C1C2886101D2886142C280B118B1357
:10004000A50A0F302502031D2C28861F2928861398
:100050002A2886170301A5008B17200E830083161C
:100060000313220E810083120313210E09000730AF
:10007000831203139F00831603130130860083123B
:10008000031386018501203084008001840A8030BA
:100090000402031D45288730831603138100831251
:1000A00003130B118B168B100B168B178101080095
:02400E00783FF9
:00000001FF
