:020000040000FA
:020000000528D1
:0800080008282B20010806283E
:10001000A100A10E83160313010EA2008312031385
:10002000030EA0000B118B13A50A0F302502031D30
:100030002028061C1D2806101E2806140301A500F2
:100040008B17200E830083160313220E8100831268
:100050000313210E09000730831203139F00831638
:1000600003130030860083120313860185012030BC
:1000700084008001840A80300402031D39288730FF
:10008000831603138100831203130B118B168B1736
:0400900081010800E2
:02400E00783FF9
:00000001FF
