:020000040000FA
:020000000528D1
:0800080007282D2006280B112A
:1000100006308100A10AC83021020319102009000E
:10002000A00A103020020319A00120081B20A20002
:100030008600A101080082073F3406345B344F3448
:1000400066346D347D3407347F346F3477347C34D8
:1000500039345E34793471348034831203130730B9
:10006000831203139F008316031386018316031361
:1000700001308100831203138B160B118B1706308E
:0E0080008312031381008601A001A101080074
:02400E004A3F27
:00000001FF
