:020000040000FA
:1000000001284B2005180528A00A85180828A003F8
:1000100010302002031D0E28A0011528FF302002F9
:10002000031D15280F30A000152820081B2086006E
:10003000FA302D20022882073F3406345B344F34D7
:1000400066346D347D3407347F346F3477347C34D8
:1000500039345E34793471348034A500A50AA50B97
:100060003228342835202F2808003230A4000530EB
:100070000000A300A30B3A28A40B37280800A10016
:10008000FA302D20FA302D20FA302D20FA302D2094
:10009000A10B402808000730831203139F0083162A
:1000A000031300308600FF3085008312031386019E
:0400B000A0010800A3
:02400E004A3F27
:00000001FF
