:020000040000FA
:1000000001285320051809280A3035200518092829
:10001000A00A851810280A30352085181028A0035A
:1000200010302002031D1628A0011D28FF302002D9
:10003000031D1D280F30A0001D2820082320860046
:10004000FA303520022882073F3406345B344F34BF
:1000500066346D347D3407347F346F3477347C34C8
:1000600039345E34793471348034A500A50AA50B87
:100070003A283C283D20372808003230A4000530BB
:100080000000A300A30B4228A40B3F280800A100F6
:10009000FA303520FA303520FA303520FA30352064
:1000A000A10B482808000730831203139F00831612
:1000B000031300308600FF3085008312031386018E
:0400C000A001080093
:02400E004A3F27
:00000001FF
